{
  "_format": "hh-sol-artifact-1",
  "contractName": "TokenGate",
  "sourceName": "contracts/TokenGate.sol",
  "abi": [
    {
      "anonymous": false,
      "inputs": [
        {
          "indexed": true,
          "internalType": "address",
          "name": "initializer",
          "type": "address"
        }
      ],
      "name": "Initialized",
      "type": "event"
    },
    {
      "anonymous": false,
      "inputs": [
        {
          "indexed": true,
          "internalType": "bytes32",
          "name": "role",
          "type": "bytes32"
        },
        {
          "indexed": true,
          "internalType": "bytes32",
          "name": "previousAdminRole",
          "type": "bytes32"
        },
        {
          "indexed": true,
          "internalType": "bytes32",
          "name": "newAdminRole",
          "type": "bytes32"
        }
      ],
      "name": "RoleAdminChanged",
      "type": "event"
    },
    {
      "anonymous": false,
      "inputs": [
        {
          "indexed": true,
          "internalType": "bytes32",
          "name": "role",
          "type": "bytes32"
        },
        {
          "indexed": true,
          "internalType": "address",
          "name": "account",
          "type": "address"
        },
        {
          "indexed": true,
          "internalType": "address",
          "name": "sender",
          "type": "address"
        }
      ],
      "name": "RoleGranted",
      "type": "event"
    },
    {
      "anonymous": false,
      "inputs": [
        {
          "indexed": true,
          "internalType": "bytes32",
          "name": "role",
          "type": "bytes32"
        },
        {
          "indexed": true,
          "internalType": "address",
          "name": "account",
          "type": "address"
        },
        {
          "indexed": true,
          "internalType": "address",
          "name": "sender",
          "type": "address"
        }
      ],
      "name": "RoleRevoked",
      "type": "event"
    },
    {
      "anonymous": false,
      "inputs": [
        {
          "indexed": true,
          "internalType": "address",
          "name": "susbscriber",
          "type": "address"
        },
        {
          "indexed": true,
          "internalType": "address",
          "name": "locker",
          "type": "address"
        },
        {
          "indexed": true,
          "internalType": "address",
          "name": "contractAddress",
          "type": "address"
        },
        {
          "indexed": false,
          "internalType": "uint256",
          "name": "dateOfSubscription",
          "type": "uint256"
        },
        {
          "indexed": false,
          "internalType": "uint256",
          "name": "dateOfExpiration",
          "type": "uint256"
        }
      ],
      "name": "Subscribed",
      "type": "event"
    },
    {
      "anonymous": false,
      "inputs": [
        {
          "indexed": true,
          "internalType": "address",
          "name": "tokenAdress",
          "type": "address"
        },
        {
          "indexed": true,
          "internalType": "uint256",
          "name": "amount",
          "type": "uint256"
        },
        {
          "indexed": true,
          "internalType": "address",
          "name": "caller",
          "type": "address"
        }
      ],
      "name": "WithdrawBalancePaidForToken",
      "type": "event"
    },
    {
      "inputs": [],
      "name": "ADMIN_ROLE",
      "outputs": [
        {
          "internalType": "bytes32",
          "name": "",
          "type": "bytes32"
        }
      ],
      "stateMutability": "view",
      "type": "function"
    },
    {
      "inputs": [],
      "name": "DEFAULT_ADMIN_ROLE",
      "outputs": [
        {
          "internalType": "bytes32",
          "name": "",
          "type": "bytes32"
        }
      ],
      "stateMutability": "view",
      "type": "function"
    },
    {
      "inputs": [],
      "name": "ERC_1155",
      "outputs": [
        {
          "internalType": "bytes32",
          "name": "",
          "type": "bytes32"
        }
      ],
      "stateMutability": "view",
      "type": "function"
    },
    {
      "inputs": [],
      "name": "ERC_20",
      "outputs": [
        {
          "internalType": "bytes32",
          "name": "",
          "type": "bytes32"
        }
      ],
      "stateMutability": "view",
      "type": "function"
    },
    {
      "inputs": [],
      "name": "ERC_721",
      "outputs": [
        {
          "internalType": "bytes32",
          "name": "",
          "type": "bytes32"
        }
      ],
      "stateMutability": "view",
      "type": "function"
    },
    {
      "inputs": [
        {
          "internalType": "address",
          "name": "",
          "type": "address"
        },
        {
          "internalType": "address",
          "name": "",
          "type": "address"
        },
        {
          "internalType": "address",
          "name": "",
          "type": "address"
        }
      ],
      "name": "allSubscribers",
      "outputs": [
        {
          "internalType": "address",
          "name": "subscriberAddress",
          "type": "address"
        },
        {
          "internalType": "uint256",
          "name": "dateOfSubscription",
          "type": "uint256"
        },
        {
          "internalType": "uint256",
          "name": "dateOfExpiration",
          "type": "uint256"
        }
      ],
      "stateMutability": "view",
      "type": "function"
    },
    {
      "inputs": [
        {
          "components": [
            {
              "internalType": "address",
              "name": "contractAddress",
              "type": "address"
            },
            {
              "internalType": "address",
              "name": "locker",
              "type": "address"
            },
            {
              "internalType": "bytes32",
              "name": "typeOfToken",
              "type": "bytes32"
            },
            {
              "internalType": "int256",
              "name": "specifyId",
              "type": "int256"
            },
            {
              "components": [
                {
                  "internalType": "bool",
                  "name": "isSubscribable",
                  "type": "bool"
                },
                {
                  "internalType": "uint256",
                  "name": "price",
                  "type": "uint256"
                },
                {
                  "internalType": "uint256",
                  "name": "duration",
                  "type": "uint256"
                }
              ],
              "internalType": "struct TokenGate.Subscription",
              "name": "subscription",
              "type": "tuple"
            },
            {
              "internalType": "uint256",
              "name": "amount",
              "type": "uint256"
            }
          ],
          "internalType": "struct TokenGate.AccessToken",
          "name": "_accessToken",
          "type": "tuple"
        },
        {
          "internalType": "address",
          "name": "_userAddress",
          "type": "address"
        }
      ],
      "name": "balanceOf",
      "outputs": [
        {
          "internalType": "bool",
          "name": "",
          "type": "bool"
        }
      ],
      "stateMutability": "view",
      "type": "function"
    },
    {
      "inputs": [
        {
          "components": [
            {
              "internalType": "address",
              "name": "contractAddress",
              "type": "address"
            },
            {
              "internalType": "address",
              "name": "locker",
              "type": "address"
            },
            {
              "internalType": "bytes32",
              "name": "typeOfToken",
              "type": "bytes32"
            },
            {
              "internalType": "int256",
              "name": "specifyId",
              "type": "int256"
            },
            {
              "components": [
                {
                  "internalType": "bool",
                  "name": "isSubscribable",
                  "type": "bool"
                },
                {
                  "internalType": "uint256",
                  "name": "price",
                  "type": "uint256"
                },
                {
                  "internalType": "uint256",
                  "name": "duration",
                  "type": "uint256"
                }
              ],
              "internalType": "struct TokenGate.Subscription",
              "name": "subscription",
              "type": "tuple"
            },
            {
              "internalType": "uint256",
              "name": "amount",
              "type": "uint256"
            }
          ],
          "internalType": "struct TokenGate.AccessToken",
          "name": "_accessToken",
          "type": "tuple"
        },
        {
          "internalType": "address",
          "name": "_userAddress",
          "type": "address"
        }
      ],
      "name": "checkAccess",
      "outputs": [
        {
          "internalType": "bool",
          "name": "",
          "type": "bool"
        }
      ],
      "stateMutability": "view",
      "type": "function"
    },
    {
      "inputs": [
        {
          "components": [
            {
              "internalType": "address",
              "name": "contractAddress",
              "type": "address"
            },
            {
              "internalType": "address",
              "name": "locker",
              "type": "address"
            },
            {
              "internalType": "bytes32",
              "name": "typeOfToken",
              "type": "bytes32"
            },
            {
              "internalType": "int256",
              "name": "specifyId",
              "type": "int256"
            },
            {
              "components": [
                {
                  "internalType": "bool",
                  "name": "isSubscribable",
                  "type": "bool"
                },
                {
                  "internalType": "uint256",
                  "name": "price",
                  "type": "uint256"
                },
                {
                  "internalType": "uint256",
                  "name": "duration",
                  "type": "uint256"
                }
              ],
              "internalType": "struct TokenGate.Subscription",
              "name": "subscription",
              "type": "tuple"
            },
            {
              "internalType": "uint256",
              "name": "amount",
              "type": "uint256"
            }
          ],
          "internalType": "struct TokenGate.AccessToken",
          "name": "_accessToken",
          "type": "tuple"
        },
        {
          "internalType": "address",
          "name": "_userAddress",
          "type": "address"
        }
      ],
      "name": "checkIfSubscribed",
      "outputs": [
        {
          "internalType": "bool",
          "name": "",
          "type": "bool"
        }
      ],
      "stateMutability": "view",
      "type": "function"
    },
    {
      "inputs": [],
      "name": "emergencyWithdraw",
      "outputs": [],
      "stateMutability": "nonpayable",
      "type": "function"
    },
    {
      "inputs": [
        {
          "internalType": "address",
          "name": "",
          "type": "address"
        },
        {
          "internalType": "address",
          "name": "",
          "type": "address"
        }
      ],
      "name": "ethBalanceForToken",
      "outputs": [
        {
          "internalType": "uint256",
          "name": "",
          "type": "uint256"
        }
      ],
      "stateMutability": "view",
      "type": "function"
    },
    {
      "inputs": [
        {
          "internalType": "address",
          "name": "_contractAddress",
          "type": "address"
        }
      ],
      "name": "ethBalancePaidForTokenAccess",
      "outputs": [
        {
          "internalType": "uint256",
          "name": "",
          "type": "uint256"
        }
      ],
      "stateMutability": "view",
      "type": "function"
    },
    {
      "inputs": [],
      "name": "feeGeneratedFromCharges",
      "outputs": [
        {
          "internalType": "uint256",
          "name": "",
          "type": "uint256"
        }
      ],
      "stateMutability": "view",
      "type": "function"
    },
    {
      "inputs": [],
      "name": "feePercent",
      "outputs": [
        {
          "internalType": "uint256",
          "name": "",
          "type": "uint256"
        }
      ],
      "stateMutability": "view",
      "type": "function"
    },
    {
      "inputs": [
        {
          "internalType": "bytes32",
          "name": "role",
          "type": "bytes32"
        }
      ],
      "name": "getRoleAdmin",
      "outputs": [
        {
          "internalType": "bytes32",
          "name": "",
          "type": "bytes32"
        }
      ],
      "stateMutability": "view",
      "type": "function"
    },
    {
      "inputs": [
        {
          "internalType": "bytes32",
          "name": "role",
          "type": "bytes32"
        },
        {
          "internalType": "address",
          "name": "account",
          "type": "address"
        }
      ],
      "name": "grantRole",
      "outputs": [],
      "stateMutability": "nonpayable",
      "type": "function"
    },
    {
      "inputs": [
        {
          "internalType": "bytes32",
          "name": "role",
          "type": "bytes32"
        },
        {
          "internalType": "address",
          "name": "account",
          "type": "address"
        }
      ],
      "name": "hasRole",
      "outputs": [
        {
          "internalType": "bool",
          "name": "",
          "type": "bool"
        }
      ],
      "stateMutability": "view",
      "type": "function"
    },
    {
      "inputs": [],
      "name": "initialize",
      "outputs": [],
      "stateMutability": "nonpayable",
      "type": "function"
    },
    {
      "inputs": [
        {
          "internalType": "address",
          "name": "_contractAddress",
          "type": "address"
        },
        {
          "internalType": "int256",
          "name": "_id",
          "type": "int256"
        },
        {
          "internalType": "address",
          "name": "_userAddress",
          "type": "address"
        }
      ],
      "name": "ownerOf",
      "outputs": [
        {
          "internalType": "bool",
          "name": "",
          "type": "bool"
        }
      ],
      "stateMutability": "view",
      "type": "function"
    },
    {
      "inputs": [
        {
          "internalType": "bytes32",
          "name": "role",
          "type": "bytes32"
        },
        {
          "internalType": "address",
          "name": "account",
          "type": "address"
        }
      ],
      "name": "renounceRole",
      "outputs": [],
      "stateMutability": "nonpayable",
      "type": "function"
    },
    {
      "inputs": [
        {
          "internalType": "bytes32",
          "name": "role",
          "type": "bytes32"
        },
        {
          "internalType": "address",
          "name": "account",
          "type": "address"
        }
      ],
      "name": "revokeRole",
      "outputs": [],
      "stateMutability": "nonpayable",
      "type": "function"
    },
    {
      "inputs": [
        {
          "internalType": "uint256",
          "name": "_fee",
          "type": "uint256"
        }
      ],
      "name": "setFeePercent",
      "outputs": [],
      "stateMutability": "nonpayable",
      "type": "function"
    },
    {
      "inputs": [
        {
          "internalType": "string",
          "name": "source",
          "type": "string"
        }
      ],
      "name": "stringToBytes32",
      "outputs": [
        {
          "internalType": "bytes32",
          "name": "result",
          "type": "bytes32"
        }
      ],
      "stateMutability": "pure",
      "type": "function"
    },
    {
      "inputs": [
        {
          "components": [
            {
              "internalType": "address",
              "name": "contractAddress",
              "type": "address"
            },
            {
              "internalType": "address",
              "name": "locker",
              "type": "address"
            },
            {
              "internalType": "bytes32",
              "name": "typeOfToken",
              "type": "bytes32"
            },
            {
              "internalType": "int256",
              "name": "specifyId",
              "type": "int256"
            },
            {
              "components": [
                {
                  "internalType": "bool",
                  "name": "isSubscribable",
                  "type": "bool"
                },
                {
                  "internalType": "uint256",
                  "name": "price",
                  "type": "uint256"
                },
                {
                  "internalType": "uint256",
                  "name": "duration",
                  "type": "uint256"
                }
              ],
              "internalType": "struct TokenGate.Subscription",
              "name": "subscription",
              "type": "tuple"
            },
            {
              "internalType": "uint256",
              "name": "amount",
              "type": "uint256"
            }
          ],
          "internalType": "struct TokenGate.AccessToken",
          "name": "_accessToken",
          "type": "tuple"
        }
      ],
      "name": "subscribe",
      "outputs": [],
      "stateMutability": "payable",
      "type": "function"
    },
    {
      "inputs": [
        {
          "internalType": "bytes4",
          "name": "interfaceId",
          "type": "bytes4"
        }
      ],
      "name": "supportsInterface",
      "outputs": [
        {
          "internalType": "bool",
          "name": "",
          "type": "bool"
        }
      ],
      "stateMutability": "view",
      "type": "function"
    },
    {
      "inputs": [
        {
          "internalType": "address",
          "name": "_contractAddress",
          "type": "address"
        }
      ],
      "name": "withdrawBalancePaidForToken",
      "outputs": [],
      "stateMutability": "nonpayable",
      "type": "function"
    },
    {
      "inputs": [],
      "name": "withdrawProceedsFromAccruedCharges",
      "outputs": [],
      "stateMutability": "nonpayable",
      "type": "function"
    }
  ],
  "bytecode": "0x608060405234801561001057600080fd5b506117dc806100206000396000f3fe60806040526004361061019c5760003560e01c80637db478da116100ec578063cfb519281161008a578063db2e21bc11610064578063db2e21bc146104bf578063e632b5ba146104d4578063f77d665b146104f4578063fa22f514146105145761019c565b8063cfb519281461046a578063d547741f1461048a578063d81a5bbc146104aa5761019c565b80638129fc1c116100c65780638129fc1c1461042257806386b4dd511461043757806391d148541461044a578063a217fddf146103635761019c565b80637db478da146103d05780637ea475fb146103ec5780637fd6f15c1461040c5761019c565b806336568abe116101595780636ae17acc116101335780636ae17acc1461034557806375b238fc1461036357806377065f69146103785780637ce3489b146103b05761019c565b806336568abe146102ef57806355281ef91461030f5780635e51269d1461032f5761019c565b806301ffc9a7146101a1578063128e08cf146101d65780631418961514610201578063248a9ca31461027d57806324b000b7146102ad5780632f2ff15d146102cf575b600080fd5b3480156101ad57600080fd5b506101c16101bc3660046114c0565b610534565b60405190151581526020015b60405180910390f35b3480156101e257600080fd5b506101f36545524337323160d01b81565b6040519081526020016101cd565b34801561020d57600080fd5b5061025861021c366004611404565b60046020908152600093845260408085208252928452828420905282529020805460018201546002909201546001600160a01b03909116919083565b604080516001600160a01b0390941684526020840192909252908201526060016101cd565b34801561028957600080fd5b506101f3610298366004611484565b60009081526020819052604090206001015490565b3480156102b957600080fd5b506102cd6102c8366004611394565b61056d565b005b3480156102db57600080fd5b506102cd6102ea36600461149c565b610675565b3480156102fb57600080fd5b506102cd61030a36600461149c565b6106a1565b34801561031b57600080fd5b506101c161032a366004611591565b61071f565b34801561033b57600080fd5b506101f360035481565b34801561035157600080fd5b506101f3664552433131353560c81b81565b34801561036f57600080fd5b506101f3600081565b34801561038457600080fd5b506101f36103933660046113cc565b600560209081526000928352604080842090915290825290205481565b3480156103bc57600080fd5b506102cd6103cb366004611484565b600255565b3480156103dc57600080fd5b506101f364045524332360dc1b81565b3480156103f857600080fd5b506101f3610407366004611394565b6107dd565b34801561041857600080fd5b506101f360025481565b34801561042e57600080fd5b506102cd610805565b6102cd610445366004611575565b610905565b34801561045657600080fd5b506101c161046536600461149c565b610b2a565b34801561047657600080fd5b506101f36104853660046114e8565b610b53565b34801561049657600080fd5b506102cd6104a536600461149c565b610b71565b3480156104b657600080fd5b506102cd610b97565b3480156104cb57600080fd5b506102cd610bb7565b3480156104e057600080fd5b506101c16104ef36600461144e565b610bcd565b34801561050057600080fd5b506101c161050f366004611591565b610c69565b34801561052057600080fd5b506101c161052f366004611591565b610cf5565b60006001600160e01b03198216637965db0b60e01b148061056557506301ffc9a760e01b6001600160e01b03198316145b90505b919050565b6000610578826107dd565b116105ba5760405162461bcd60e51b815260206004820152600d60248201526c56616c756520746f6f206c6f7760981b60448201526064015b60405180910390fd5b60006105c5826107dd565b9050600060646002546105d891906116c8565b6105e290836116e8565b905060006105f08284611707565b9050816003600082825461060491906116b0565b90915550503360008181526005602090815260408083206001600160a01b03891684529091528120556106379082610e45565b604051339084906001600160a01b038716907fbf0f3c9613aa22a103c07d593ba35989b1282742111a682ec30a9326a992efc690600090a450505050565b60008281526020819052604090206001015461069281335b610f5e565b61069c8383610fc2565b505050565b6001600160a01b03811633146107115760405162461bcd60e51b815260206004820152602f60248201527f416363657373436f6e74726f6c3a2063616e206f6e6c792072656e6f756e636560448201526e103937b632b9903337b91039b2b63360891b60648201526084016105b1565b61071b8282611046565b5050565b81516000906001600160a01b0316156107d35761073c8383610c69565b15610749575060016107d7565b6545524337323160d01b836040015114801561076a575061076a83836110ab565b15610777575060016107d7565b664552433131353560c81b8360400151148015610799575061079983836110e5565b156107a6575060016107d7565b64045524332360dc1b83604001511480156107c657506107c683836110e5565b156107d3575060016107d7565b5060005b92915050565b3360009081526005602090815260408083206001600160a01b03949094168352929052205490565b600154610100900460ff166108205760015460ff1615610824565b303b155b6108875760405162461bcd60e51b815260206004820152602e60248201527f496e697469616c697a61626c653a20636f6e747261637420697320616c72656160448201526d191e481a5b9a5d1a585b1a5e995960921b60648201526084016105b1565b600154610100900460ff161580156108b1576001805460ff1961ff00199091166101001716811790555b6108bc6000336110f8565b60006003819055600281905560405133917f908408e307fc569b417f6cbec5d5a06f44a0a505ac0479b47d421a4b2fd6a1e691a28015610902576001805461ff00191690555b50565b6080810151516109705760405162461bcd60e51b815260206004820152603060248201527f537562736372697074696f6e20746f20746869732041636365737320546f6b6560448201526f1b881a5cc811195858dd1a5d985d195960821b60648201526084016105b1565b80608001516020015134146109c75760405162461bcd60e51b815260206004820152601f60248201527f45746865722076616c75652073656e74206973206e6f7420636f72726563740060448201526064016105b1565b6040518060600160405280336001600160a01b03168152602001428152602001826080015160400151426109fb91906116b0565b9052602082810180516001600160a01b03908116600090815260048452604080822087518416835285528082203383528552808220865181546001600160a01b0319169085161781558686015160018201559581015160029096019590955591518116825260058352838220855190911682529091529081208054349290610a849084906116b0565b90915550508051602080830180516001600160a01b0390811660008181526004808652604080832089518616845287528083203380855290885281842060010154965186168452918752808320895186168452875280832082845287529182902060020154825195865295850195909552919094169392917f072cbd5544c0c86519c6c869856bb0557664c1f108b065063f2409085c660664910160405180910390a450565b6000918252602082815260408084206001600160a01b0393909316845291905290205460ff1690565b80516000908290610b68575060009050610568565b50506020015190565b600082815260208190526040902060010154610b8d813361068d565b61069c8383611046565b6000610ba3813361068d565b610baf33600354610e45565b506000600355565b6000610bc3813361068d565b6109023347610e45565b6000816001600160a01b0316846001600160a01b0316636352211e856040518263ffffffff1660e01b8152600401610c0791815260200190565b60206040518083038186803b158015610c1f57600080fd5b505afa158015610c33573d6000803e3d6000fd5b505050506040513d601f19601f82011682018060405250810190610c5791906113b0565b6001600160a01b031614949350505050565b6020808301516001600160a01b039081166000908152600483526040808220865184168352845280822085841683529093529182205416156107d3576020808401516001600160a01b0390811660009081526004835260408082208751841683528452808220928616825291909252902060020154421015610ced575060016107d7565b5060006107d7565b60006545524337323160d01b83604001511415610da55760a083015183516040516370a0823160e01b81526001600160a01b038581166004830152909116906370a08231906024015b60206040518083038186803b158015610d5657600080fd5b505afa158015610d6a573d6000803e3d6000fd5b505050506040513d601f19601f82011682018060405250810190610d8e91906115bf565b1015610d9b576000610d9e565b60015b90506107d7565b664552433131353560c81b83604001511415610dfb5760a083015183516060850151604051627eeac760e11b81526001600160a01b038681166004830152602482019290925291169062fdd58e90604401610d3e565b64045524332360dc1b836040015114156107d35760a083015183516040516370a0823160e01b81526001600160a01b038581166004830152909116906370a0823190602401610d3e565b80471015610e955760405162461bcd60e51b815260206004820152601d60248201527f416464726573733a20696e73756666696369656e742062616c616e636500000060448201526064016105b1565b6000826001600160a01b03168260405160006040518083038185875af1925050503d8060008114610ee2576040519150601f19603f3d011682016040523d82523d6000602084013e610ee7565b606091505b505090508061069c5760405162461bcd60e51b815260206004820152603a60248201527f416464726573733a20756e61626c6520746f2073656e642076616c75652c207260448201527f6563697069656e74206d6179206861766520726576657274656400000000000060648201526084016105b1565b610f688282610b2a565b61071b57610f80816001600160a01b03166014611102565b610f8b836020611102565b604051602001610f9c9291906115d7565b60408051601f198184030181529082905262461bcd60e51b82526105b19160040161164c565b610fcc8282610b2a565b61071b576000828152602081815260408083206001600160a01b03851684529091529020805460ff191660011790556110023390565b6001600160a01b0316816001600160a01b0316837f2f8788117e7eff1d82e926ec794901d17c78024a50270940304540a733656f0d60405160405180910390a45050565b6110508282610b2a565b1561071b576000828152602081815260408083206001600160a01b0385168085529252808320805460ff1916905551339285917ff6391f5c32d9c69d2a47ea670b442974b53935d1edc7fd64eb21e047a839171b9190a45050565b6000826060015160001914156110c557610d9e8383610cf5565b8260600151600019146107d357610d9e8360000151846060015184610bcd565b60006110f18383610cf5565b9392505050565b61071b8282610fc2565b606060006111118360026116e8565b61111c9060026116b0565b67ffffffffffffffff81111561114257634e487b7160e01b600052604160045260246000fd5b6040519080825280601f01601f19166020018201604052801561116c576020820181803683370190505b509050600360fc1b8160008151811061119557634e487b7160e01b600052603260045260246000fd5b60200101906001600160f81b031916908160001a905350600f60fb1b816001815181106111d257634e487b7160e01b600052603260045260246000fd5b60200101906001600160f81b031916908160001a90535060006111f68460026116e8565b6112019060016116b0565b90505b6001811115611295576f181899199a1a9b1b9c1cb0b131b232b360811b85600f166010811061124357634e487b7160e01b600052603260045260246000fd5b1a60f81b82828151811061126757634e487b7160e01b600052603260045260246000fd5b60200101906001600160f81b031916908160001a90535060049490941c9361128e8161174e565b9050611204565b5083156110f15760405162461bcd60e51b815260206004820181905260248201527f537472696e67733a20686578206c656e67746820696e73756666696369656e7460448201526064016105b1565b60008183036101008112156112f7578182fd5b61130160c061167f565b9150823561130e81611791565b8252602083013561131e81611791565b60208301526040838101359083015260608084013581840152607f198201121561134757600080fd5b50611352606061167f565b6080830135801515811461136557600080fd5b8082525060a0830135602082015260c083013560408201528060808301525060e082013560a082015292915050565b6000602082840312156113a5578081fd5b81356110f181611791565b6000602082840312156113c1578081fd5b81516110f181611791565b600080604083850312156113de578081fd5b82356113e981611791565b915060208301356113f981611791565b809150509250929050565b600080600060608486031215611418578081fd5b833561142381611791565b9250602084013561143381611791565b9150604084013561144381611791565b809150509250925092565b600080600060608486031215611462578283fd5b833561146d81611791565b925060208401359150604084013561144381611791565b600060208284031215611495578081fd5b5035919050565b600080604083850312156114ae578182fd5b8235915060208301356113f981611791565b6000602082840312156114d1578081fd5b81356001600160e01b0319811681146110f1578182fd5b600060208083850312156114fa578182fd5b823567ffffffffffffffff80821115611511578384fd5b818501915085601f830112611524578384fd5b8135818111156115365761153661177b565b611548601f8201601f1916850161167f565b9150808252868482850101111561155d578485fd5b80848401858401378101909201929092529392505050565b60006101008284031215611587578081fd5b6110f183836112e4565b60008061012083850312156115a4578182fd5b6115ae84846112e4565b91506101008301356113f981611791565b6000602082840312156115d0578081fd5b5051919050565b60007f416363657373436f6e74726f6c3a206163636f756e74200000000000000000008252835161160f81601785016020880161171e565b7001034b99036b4b9b9b4b733903937b6329607d1b601791840191820152835161164081602884016020880161171e565b01602801949350505050565b600060208252825180602084015261166b81604085016020870161171e565b601f01601f19169190910160400192915050565b604051601f8201601f1916810167ffffffffffffffff811182821017156116a8576116a861177b565b604052919050565b600082198211156116c3576116c3611765565b500190565b6000826116e357634e487b7160e01b81526012600452602481fd5b500490565b600081600019048311821515161561170257611702611765565b500290565b60008282101561171957611719611765565b500390565b60005b83811015611739578181015183820152602001611721565b83811115611748576000848401525b50505050565b60008161175d5761175d611765565b506000190190565b634e487b7160e01b600052601160045260246000fd5b634e487b7160e01b600052604160045260246000fd5b6001600160a01b038116811461090257600080fdfea2646970667358221220b9e3353229e05f41de5b3a160c0f5360edf2b472b85898aac19845bfa930595464736f6c63430008020033",
  "linkReferences": {},
  "deployedLinkReferences": {}
}